{
  "contractName": "Farm",
  "abi": [
    {
      "inputs": [],
      "stateMutability": "nonpayable",
      "type": "constructor"
    },
    {
      "anonymous": false,
      "inputs": [
        {
          "indexed": true,
          "internalType": "address",
          "name": "owner",
          "type": "address"
        },
        {
          "indexed": true,
          "internalType": "address",
          "name": "approved",
          "type": "address"
        },
        {
          "indexed": true,
          "internalType": "uint256",
          "name": "tokenId",
          "type": "uint256"
        }
      ],
      "name": "Approval",
      "type": "event"
    },
    {
      "anonymous": false,
      "inputs": [
        {
          "indexed": true,
          "internalType": "address",
          "name": "owner",
          "type": "address"
        },
        {
          "indexed": true,
          "internalType": "address",
          "name": "operator",
          "type": "address"
        },
        {
          "indexed": false,
          "internalType": "bool",
          "name": "approved",
          "type": "bool"
        }
      ],
      "name": "ApprovalForAll",
      "type": "event"
    },
    {
      "anonymous": false,
      "inputs": [
        {
          "indexed": true,
          "internalType": "address",
          "name": "from",
          "type": "address"
        },
        {
          "indexed": true,
          "internalType": "address",
          "name": "to",
          "type": "address"
        },
        {
          "indexed": true,
          "internalType": "uint256",
          "name": "tokenId",
          "type": "uint256"
        }
      ],
      "name": "Transfer",
      "type": "event"
    },
    {
      "anonymous": false,
      "inputs": [
        {
          "indexed": false,
          "internalType": "uint256",
          "name": "IdOfAuction",
          "type": "uint256"
        }
      ],
      "name": "addAuction",
      "type": "event"
    },
    {
      "anonymous": false,
      "inputs": [
        {
          "indexed": false,
          "internalType": "address",
          "name": "breeder",
          "type": "address"
        }
      ],
      "name": "addBreeder",
      "type": "event"
    },
    {
      "inputs": [
        {
          "internalType": "address",
          "name": "owner",
          "type": "address"
        }
      ],
      "name": "balanceOf",
      "outputs": [
        {
          "internalType": "uint256",
          "name": "",
          "type": "uint256"
        }
      ],
      "stateMutability": "view",
      "type": "function",
      "constant": true
    },
    {
      "inputs": [
        {
          "internalType": "address",
          "name": "",
          "type": "address"
        }
      ],
      "name": "inList",
      "outputs": [
        {
          "internalType": "bool",
          "name": "",
          "type": "bool"
        }
      ],
      "stateMutability": "view",
      "type": "function",
      "constant": true
    },
    {
      "inputs": [
        {
          "internalType": "uint256",
          "name": "tokenId",
          "type": "uint256"
        }
      ],
      "name": "ownerOf",
      "outputs": [
        {
          "internalType": "address",
          "name": "",
          "type": "address"
        }
      ],
      "stateMutability": "view",
      "type": "function",
      "constant": true
    },
    {
      "inputs": [
        {
          "internalType": "bytes4",
          "name": "interfaceId",
          "type": "bytes4"
        }
      ],
      "name": "supportsInterface",
      "outputs": [
        {
          "internalType": "bool",
          "name": "",
          "type": "bool"
        }
      ],
      "stateMutability": "view",
      "type": "function",
      "constant": true
    },
    {
      "inputs": [
        {
          "internalType": "address",
          "name": "breeder",
          "type": "address"
        }
      ],
      "name": "registerBreeder",
      "outputs": [],
      "stateMutability": "nonpayable",
      "type": "function"
    },
    {
      "inputs": [
        {
          "internalType": "uint256",
          "name": "animalID",
          "type": "uint256"
        }
      ],
      "name": "AnimalInformation",
      "outputs": [
        {
          "internalType": "string",
          "name": "race",
          "type": "string"
        },
        {
          "internalType": "uint256",
          "name": "age",
          "type": "uint256"
        },
        {
          "internalType": "string",
          "name": "ville",
          "type": "string"
        },
        {
          "internalType": "string",
          "name": "color",
          "type": "string"
        },
        {
          "internalType": "string",
          "name": "name",
          "type": "string"
        },
        {
          "internalType": "bool",
          "name": "fight",
          "type": "bool"
        },
        {
          "internalType": "uint256",
          "name": "fightPrice",
          "type": "uint256"
        }
      ],
      "stateMutability": "view",
      "type": "function",
      "constant": true
    },
    {
      "inputs": [
        {
          "internalType": "string",
          "name": "race",
          "type": "string"
        },
        {
          "internalType": "uint256",
          "name": "age",
          "type": "uint256"
        },
        {
          "internalType": "string",
          "name": "ville",
          "type": "string"
        },
        {
          "internalType": "string",
          "name": "color",
          "type": "string"
        },
        {
          "internalType": "string",
          "name": "name",
          "type": "string"
        }
      ],
      "name": "declareAnimal",
      "outputs": [],
      "stateMutability": "nonpayable",
      "type": "function"
    },
    {
      "inputs": [
        {
          "internalType": "uint256",
          "name": "tokenId",
          "type": "uint256"
        }
      ],
      "name": "deadAnimal",
      "outputs": [],
      "stateMutability": "nonpayable",
      "type": "function"
    },
    {
      "inputs": [
        {
          "internalType": "uint256",
          "name": "tokenId1",
          "type": "uint256"
        },
        {
          "internalType": "uint256",
          "name": "tokenID2",
          "type": "uint256"
        },
        {
          "internalType": "string",
          "name": "name",
          "type": "string"
        },
        {
          "internalType": "string",
          "name": "color",
          "type": "string"
        }
      ],
      "name": "breedAnimal",
      "outputs": [],
      "stateMutability": "nonpayable",
      "type": "function"
    },
    {
      "inputs": [
        {
          "internalType": "uint256",
          "name": "tokenId",
          "type": "uint256"
        }
      ],
      "name": "createAuction",
      "outputs": [],
      "stateMutability": "nonpayable",
      "type": "function"
    },
    {
      "inputs": [
        {
          "internalType": "uint256",
          "name": "marketplaceID",
          "type": "uint256"
        }
      ],
      "name": "information_marketplace",
      "outputs": [
        {
          "internalType": "uint256",
          "name": "maxprice",
          "type": "uint256"
        },
        {
          "internalType": "address",
          "name": "currentWinner",
          "type": "address"
        },
        {
          "internalType": "bool",
          "name": "state",
          "type": "bool"
        }
      ],
      "stateMutability": "view",
      "type": "function",
      "constant": true
    },
    {
      "inputs": [
        {
          "internalType": "uint256",
          "name": "marketplaceID",
          "type": "uint256"
        }
      ],
      "name": "BidOnAuction",
      "outputs": [],
      "stateMutability": "payable",
      "type": "function",
      "payable": true
    },
    {
      "inputs": [
        {
          "internalType": "uint256",
          "name": "marketplaceID",
          "type": "uint256"
        }
      ],
      "name": "claimAuction",
      "outputs": [],
      "stateMutability": "nonpayable",
      "type": "function"
    },
    {
      "inputs": [
        {
          "internalType": "uint256",
          "name": "animalID",
          "type": "uint256"
        }
      ],
      "name": "proposeToFight",
      "outputs": [],
      "stateMutability": "payable",
      "type": "function",
      "payable": true
    },
    {
      "inputs": [
        {
          "internalType": "uint256",
          "name": "myAnimalID",
          "type": "uint256"
        },
        {
          "internalType": "uint256",
          "name": "fighter",
          "type": "uint256"
        }
      ],
      "name": "agreeToFight",
      "outputs": [],
      "stateMutability": "payable",
      "type": "function",
      "payable": true
    }
  ],
  "bytecode": "0x60806040526001600a553480156200001657600080fd5b506200002f6301ffc9a760e01b6200008e60201b60201c565b620000476380ac58cd60e01b6200008e60201b60201c565b33600560006101000a81548173ffffffffffffffffffffffffffffffffffffffff021916908373ffffffffffffffffffffffffffffffffffffffff16021790555062000197565b63ffffffff60e01b817bffffffffffffffffffffffffffffffffffffffffffffffffffffffff191614156200012b576040517f08c379a000000000000000000000000000000000000000000000000000000000815260040180806020018281038252601c8152602001807f4552433136353a20696e76616c696420696e746572666163652069640000000081525060200191505060405180910390fd5b6001600080837bffffffffffffffffffffffffffffffffffffffffffffffffffffffff19167bffffffffffffffffffffffffffffffffffffffffffffffffffffffff1916815260200190815260200160002060006101000a81548160ff02191690831515021790555050565b6133d480620001a76000396000f3fe6080604052600436106100e85760003560e01c80635e14e48f1161008a578063c1722d2b11610059578063c1722d2b14610a0a578063d5563f3114610a42578063ec9b6db914610a7d578063ed29e79714610ab8576100e8565b80635e14e48f1461077c5780636352211e146108ef57806370a082311461096a5780639aafc6c9146109cf576100e8565b80632a68f2a9116100c65780632a68f2a9146103d95780632e2e686d14610407578063476fd4741461069e5780634794f366146106ef576100e8565b806301ffc9a7146100ed5780630e72a6871461015f57806325b198eb14610370575b600080fd5b3480156100f957600080fd5b506101456004803603602081101561011057600080fd5b8101908080357bffffffffffffffffffffffffffffffffffffffffffffffffffffffff19169060200190929190505050610ae6565b604051808215151515815260200191505060405180910390f35b34801561016b57600080fd5b506101986004803603602081101561018257600080fd5b8101908080359060200190929190505050610b4d565b60405180806020018881526020018060200180602001806020018715151515815260200186815260200185810385528c818151815260200191508051906020019080838360005b838110156101fa5780820151818401526020810190506101df565b50505050905090810190601f1680156102275780820380516001836020036101000a031916815260200191505b5085810384528a818151815260200191508051906020019080838360005b83811015610260578082015181840152602081019050610245565b50505050905090810190601f16801561028d5780820380516001836020036101000a031916815260200191505b50858103835289818151815260200191508051906020019080838360005b838110156102c65780820151818401526020810190506102ab565b50505050905090810190601f1680156102f35780820380516001836020036101000a031916815260200191505b50858103825288818151815260200191508051906020019080838360005b8381101561032c578082015181840152602081019050610311565b50505050905090810190601f1680156103595780820380516001836020036101000a031916815260200191505b509b50505050505050505050505060405180910390f35b34801561037c57600080fd5b506103bf6004803603602081101561039357600080fd5b81019080803573ffffffffffffffffffffffffffffffffffffffff169060200190929190505050610ec4565b604051808215151515815260200191505060405180910390f35b610405600480360360208110156103ef57600080fd5b8101908080359060200190929190505050610ee4565b005b34801561041357600080fd5b5061069c600480360360a081101561042a57600080fd5b810190808035906020019064010000000081111561044757600080fd5b82018360208201111561045957600080fd5b8035906020019184600183028401116401000000008311171561047b57600080fd5b91908080601f016020809104026020016040519081016040528093929190818152602001838380828437600081840152601f19601f82011690508083019250505050505050919291929080359060200190929190803590602001906401000000008111156104e857600080fd5b8201836020820111156104fa57600080fd5b8035906020019184600183028401116401000000008311171561051c57600080fd5b91908080601f016020809104026020016040519081016040528093929190818152602001838380828437600081840152601f19601f8201169050808301925050505050505091929192908035906020019064010000000081111561057f57600080fd5b82018360208201111561059157600080fd5b803590602001918460018302840111640100000000831117156105b357600080fd5b91908080601f016020809104026020016040519081016040528093929190818152602001838380828437600081840152601f19601f8201169050808301925050505050505091929192908035906020019064010000000081111561061657600080fd5b82018360208201111561062857600080fd5b8035906020019184600183028401116401000000008311171561064a57600080fd5b91908080601f016020809104026020016040519081016040528093929190818152602001838380828437600081840152601f19601f82011690508083019250505050505050919291929050505061124b565b005b3480156106aa57600080fd5b506106ed600480360360208110156106c157600080fd5b81019080803573ffffffffffffffffffffffffffffffffffffffff169060200190929190505050611394565b005b3480156106fb57600080fd5b506107286004803603602081101561071257600080fd5b810190808035906020019092919050505061155b565b604051808481526020018373ffffffffffffffffffffffffffffffffffffffff1673ffffffffffffffffffffffffffffffffffffffff16815260200182151515158152602001935050505060405180910390f35b34801561078857600080fd5b506108ed6004803603608081101561079f57600080fd5b810190808035906020019092919080359060200190929190803590602001906401000000008111156107d057600080fd5b8201836020820111156107e257600080fd5b8035906020019184600183028401116401000000008311171561080457600080fd5b91908080601f016020809104026020016040519081016040528093929190818152602001838380828437600081840152601f19601f8201169050808301925050505050505091929192908035906020019064010000000081111561086757600080fd5b82018360208201111561087957600080fd5b8035906020019184600183028401116401000000008311171561089b57600080fd5b91908080601f016020809104026020016040519081016040528093929190818152602001838380828437600081840152601f19601f8201169050808301925050505050505091929192905050506115fa565b005b3480156108fb57600080fd5b506109286004803603602081101561091257600080fd5b81019080803590602001909291905050506118ad565b604051808273ffffffffffffffffffffffffffffffffffffffff1673ffffffffffffffffffffffffffffffffffffffff16815260200191505060405180910390f35b34801561097657600080fd5b506109b96004803603602081101561098d57600080fd5b81019080803573ffffffffffffffffffffffffffffffffffffffff169060200190929190505050611975565b6040518082815260200191505060405180910390f35b3480156109db57600080fd5b50610a08600480360360208110156109f257600080fd5b8101908080359060200190929190505050611a4a565b005b610a4060048036036040811015610a2057600080fd5b810190808035906020019092919080359060200190929190505050611ea0565b005b348015610a4e57600080fd5b50610a7b60048036036020811015610a6557600080fd5b810190808035906020019092919050505061223e565b005b348015610a8957600080fd5b50610ab660048036036020811015610aa057600080fd5b810190808035906020019092919050505061249d565b005b610ae460048036036020811015610ace57600080fd5b81019080803590602001909291905050506124a9565b005b6000806000837bffffffffffffffffffffffffffffffffffffffffffffffffffffffff19167bffffffffffffffffffffffffffffffffffffffffffffffffffffffff1916815260200190815260200160002060009054906101000a900460ff169050919050565b60606000606080606060008060078881548110610b6657fe5b906000526020600020906009020160000160078981548110610b8457fe5b90600052602060002090600902016001015460078a81548110610ba357fe5b906000526020600020906009020160020160078b81548110610bc157fe5b906000526020600020906009020160030160078c81548110610bdf57fe5b906000526020600020906009020160040160078d81548110610bfd57fe5b906000526020600020906009020160070160009054906101000a900460ff1660078e81548110610c2957fe5b906000526020600020906009020160080154868054600181600116156101000203166002900480601f016020809104026020016040519081016040528092919081815260200182805460018160011615610100020316600290048015610cd05780601f10610ca557610100808354040283529160200191610cd0565b820191906000526020600020905b815481529060010190602001808311610cb357829003601f168201915b50505050509650848054600181600116156101000203166002900480601f016020809104026020016040519081016040528092919081815260200182805460018160011615610100020316600290048015610d6c5780601f10610d4157610100808354040283529160200191610d6c565b820191906000526020600020905b815481529060010190602001808311610d4f57829003601f168201915b50505050509450838054600181600116156101000203166002900480601f016020809104026020016040519081016040528092919081815260200182805460018160011615610100020316600290048015610e085780601f10610ddd57610100808354040283529160200191610e08565b820191906000526020600020905b815481529060010190602001808311610deb57829003601f168201915b50505050509350828054600181600116156101000203166002900480601f016020809104026020016040519081016040528092919081815260200182805460018160011615610100020316600290048015610ea45780601f10610e7957610100808354040283529160200191610ea4565b820191906000526020600020905b815481529060010190602001808311610e8757829003601f168201915b505050505092509650965096509650965096509650919395979092949650565b60066020528060005260406000206000915054906101000a900460ff1681565b80600073ffffffffffffffffffffffffffffffffffffffff1660098281548110610f0a57fe5b906000526020600020906007020160040160009054906101000a900473ffffffffffffffffffffffffffffffffffffffff1673ffffffffffffffffffffffffffffffffffffffff161415610fc6576040517f08c379a000000000000000000000000000000000000000000000000000000000815260040180806020018281038252601a8152602001807f4d61726b6574706c6163652073686f756c64206265206f70656e00000000000081525060200191505060405180910390fd5b6202a30060098381548110610fd757fe5b906000526020600020906007020160010154014211156110295760006009838154811061100057fe5b906000526020600020906007020160060160006101000a81548160ff0219169083151502179055505b600115156009838154811061103a57fe5b906000526020600020906007020160060160009054906101000a900460ff161515146110b1576040517f08c379a000000000000000000000000000000000000000000000000000000000815260040180806020018281038252602d815260200180613230602d913960400191505060405180910390fd5b34600983815481106110bf57fe5b90600052602060002090600702016005015410156111ff57600982815481106110e457fe5b906000526020600020906007020160030160009054906101000a900473ffffffffffffffffffffffffffffffffffffffff1673ffffffffffffffffffffffffffffffffffffffff166108fc6009848154811061113c57fe5b9060005260206000209060070201600501549081150290604051600060405180830381858888f19350505050158015611179573d6000803e3d6000fd5b50346009838154811061118857fe5b90600052602060002090600702016005018190555033600983815481106111ab57fe5b906000526020600020906007020160030160006101000a81548173ffffffffffffffffffffffffffffffffffffffff021916908373ffffffffffffffffffffffffffffffffffffffff160217905550611247565b3373ffffffffffffffffffffffffffffffffffffffff166108fc349081150290604051600060405180830381858888f19350505050158015611245573d6000803e3d6000fd5b505b5050565b600760405180610120016040528087815260200186815260200185815260200184815260200183815260200160008152602001600081526020016000151581526020016000815250908060018154018082558091505060019003906000526020600020906009020160009091909190915060008201518160000190805190602001906112d892919061310f565b506020820151816001015560408201518160020190805190602001906112ff92919061310f565b50606082015181600301908051906020019061131c92919061310f565b50608082015181600401908051906020019061133992919061310f565b5060a0820151816005015560c0820151816006015560e08201518160070160006101000a81548160ff0219169083151502179055506101008201518160080155505061138d336001600780549050036125af565b5050505050565b600560009054906101000a900473ffffffffffffffffffffffffffffffffffffffff1673ffffffffffffffffffffffffffffffffffffffff163373ffffffffffffffffffffffffffffffffffffffff161461143a576040517f08c379a00000000000000000000000000000000000000000000000000000000081526004018080602001828103825260218152602001806133596021913960400191505060405180910390fd5b6008819080600181540180825580915050600190039060005260206000200160009091909190916101000a81548173ffffffffffffffffffffffffffffffffffffffff021916908373ffffffffffffffffffffffffffffffffffffffff1602179055506001600660008373ffffffffffffffffffffffffffffffffffffffff1673ffffffffffffffffffffffffffffffffffffffff16815260200190815260200160002060006101000a81548160ff0219169083151502179055507f07c4bdeb5db0bd14ff301a05f4d029a128399c773e8bd694ace128502b09db0081604051808273ffffffffffffffffffffffffffffffffffffffff1673ffffffffffffffffffffffffffffffffffffffff16815260200191505060405180910390a150565b60008060006009848154811061156d57fe5b9060005260206000209060070201600501546009858154811061158c57fe5b906000526020600020906007020160030160009054906101000a900473ffffffffffffffffffffffffffffffffffffffff16600986815481106115cb57fe5b906000526020600020906007020160060160009054906101000a900460ff168191509250925092509193909250565b60076040518061012001604052806007878154811061161557fe5b90600052602060002090600902016000018054600181600116156101000203166002900480601f0160208091040260200160405190810160405280929190818152602001828054600181600116156101000203166002900480156116ba5780601f1061168f576101008083540402835291602001916116ba565b820191906000526020600020905b81548152906001019060200180831161169d57829003601f168201915b5050505050815260200160008152602001600787815481106116d857fe5b90600052602060002090600902016002018054600181600116156101000203166002900480601f01602080910402602001604051908101604052809291908181526020018280546001816001161561010002031660029004801561177d5780601f106117525761010080835404028352916020019161177d565b820191906000526020600020905b81548152906001019060200180831161176057829003601f168201915b505050505081526020018381526020018481526020018681526020018581526020016000151581526020016000815250908060018154018082558091505060019003906000526020600020906009020160009091909190915060008201518160000190805190602001906117f292919061310f565b5060208201518160010155604082015181600201908051906020019061181992919061310f565b50606082015181600301908051906020019061183692919061310f565b50608082015181600401908051906020019061185392919061310f565b5060a0820151816005015560c0820151816006015560e08201518160070160006101000a81548160ff021916908315150217905550610100820151816008015550506118a7336001600780549050036125af565b50505050565b6000806001600084815260200190815260200160002060009054906101000a900473ffffffffffffffffffffffffffffffffffffffff169050600073ffffffffffffffffffffffffffffffffffffffff168173ffffffffffffffffffffffffffffffffffffffff16141561196c576040517f08c379a00000000000000000000000000000000000000000000000000000000081526004018080602001828103825260298152602001806132876029913960400191505060405180910390fd5b80915050919050565b60008073ffffffffffffffffffffffffffffffffffffffff168273ffffffffffffffffffffffffffffffffffffffff1614156119fc576040517f08c379a000000000000000000000000000000000000000000000000000000000815260040180806020018281038252602a81526020018061325d602a913960400191505060405180910390fd5b611a43600360008473ffffffffffffffffffffffffffffffffffffffff1673ffffffffffffffffffffffffffffffffffffffff1681526020019081526020016000206127d3565b9050919050565b80600073ffffffffffffffffffffffffffffffffffffffff1660098281548110611a7057fe5b906000526020600020906007020160040160009054906101000a900473ffffffffffffffffffffffffffffffffffffffff1673ffffffffffffffffffffffffffffffffffffffff161415611b2c576040517f08c379a000000000000000000000000000000000000000000000000000000000815260040180806020018281038252601a8152602001807f4d61726b6574706c6163652073686f756c64206265206f70656e00000000000081525060200191505060405180910390fd5b6202a30060098381548110611b3d57fe5b90600052602060002090600702016001015401421115611b8f57600060098381548110611b6657fe5b906000526020600020906007020160060160006101000a81548160ff0219169083151502179055505b6000151560098381548110611ba057fe5b906000526020600020906007020160060160009054906101000a900460ff16151514611c34576040517f08c379a00000000000000000000000000000000000000000000000000000000081526004018080602001828103825260188152602001807f4d61726b6574506c616365206d757374206265206f766572000000000000000081525060200191505060405180910390fd5b3373ffffffffffffffffffffffffffffffffffffffff1660098381548110611c5857fe5b906000526020600020906007020160030160009054906101000a900473ffffffffffffffffffffffffffffffffffffffff1673ffffffffffffffffffffffffffffffffffffffff1614611cf6576040517f08c379a00000000000000000000000000000000000000000000000000000000081526004018080602001828103825260238152602001806132b06023913960400191505060405180910390fd5b611d9b60098381548110611d0657fe5b906000526020600020906007020160040160009054906101000a900473ffffffffffffffffffffffffffffffffffffffff1660098481548110611d4557fe5b906000526020600020906007020160030160009054906101000a900473ffffffffffffffffffffffffffffffffffffffff1660098581548110611d8457fe5b9060005260206000209060070201600201546127e1565b60098281548110611da857fe5b906000526020600020906007020160040160009054906101000a900473ffffffffffffffffffffffffffffffffffffffff1673ffffffffffffffffffffffffffffffffffffffff166108fc60098481548110611e0057fe5b9060005260206000209060070201600501549081150290604051600060405180830381858888f19350505050158015611e3d573d6000803e3d6000fd5b50600060098381548110611e4d57fe5b906000526020600020906007020160040160006101000a81548173ffffffffffffffffffffffffffffffffffffffff021916908373ffffffffffffffffffffffffffffffffffffffff1602179055505050565b3373ffffffffffffffffffffffffffffffffffffffff16611ec0836118ad565b73ffffffffffffffffffffffffffffffffffffffff1614611f49576040517f08c379a000000000000000000000000000000000000000000000000000000000815260040180806020018281038252601f8152602001807f6d75737420626520746865206f776e6572206f662074686520616e696d616c0081525060200191505060405180910390fd5b6001151560078281548110611f5a57fe5b906000526020600020906009020160070160009054906101000a900460ff16151514611fee576040517f08c379a000000000000000000000000000000000000000000000000000000000815260040180806020018281038252601b8152602001807f616476657273617279206d75737420626520612066696768746572000000000081525060200191505060405180910390fd5b3460078281548110611ffc57fe5b90600052602060002090600902016008015414612064576040517f08c379a000000000000000000000000000000000000000000000000000000000815260040180806020018281038252602b8152602001806131b5602b913960400191505060405180910390fd5b6007828154811061207157fe5b9060005260206000209060090201600101546007828154811061209057fe5b906000526020600020906009020160010154111561211c576120b1816118ad565b73ffffffffffffffffffffffffffffffffffffffff166108fc600783815481106120d757fe5b90600052602060002090600902016008015434019081150290604051600060405180830381858888f19350505050158015612116573d6000803e3d6000fd5b50612184565b3373ffffffffffffffffffffffffffffffffffffffff166108fc6007838154811061214357fe5b90600052602060002090600902016008015434019081150290604051600060405180830381858888f19350505050158015612182573d6000803e3d6000fd5b505b60006007828154811061219357fe5b906000526020600020906009020160070160006101000a81548160ff0219169083151502179055506000600783815481106121ca57fe5b906000526020600020906009020160070160006101000a81548160ff02191690831515021790555060006007828154811061220157fe5b90600052602060002090600902016008018190555060006007838154811061222557fe5b9060005260206000209060090201600801819055505050565b3373ffffffffffffffffffffffffffffffffffffffff1661225e826118ad565b73ffffffffffffffffffffffffffffffffffffffff16146122e7576040517f08c379a000000000000000000000000000000000000000000000000000000000815260040180806020018281038252601f8152602001807f6d75737420626520746865206f776e6572206f662074686520616e696d616c0081525060200191505060405180910390fd5b60096040518060e00160405280600a5481526020014281526020018381526020013373ffffffffffffffffffffffffffffffffffffffff1681526020013373ffffffffffffffffffffffffffffffffffffffff1681526020016000815260200160011515815250908060018154018082558091505060019003906000526020600020906007020160009091909190915060008201518160000155602082015181600101556040820151816002015560608201518160030160006101000a81548173ffffffffffffffffffffffffffffffffffffffff021916908373ffffffffffffffffffffffffffffffffffffffff16021790555060808201518160040160006101000a81548173ffffffffffffffffffffffffffffffffffffffff021916908373ffffffffffffffffffffffffffffffffffffffff16021790555060a0820151816005015560c08201518160060160006101000a81548160ff02191690831515021790555050506001600a5401600a819055507fd95bd321173ff68af8efc993fecedf4fcf8e355a66089b27b81405054dc3bb2e6001600980549050036040518082815260200191505060405180910390a150565b6124a681612857565b50565b3373ffffffffffffffffffffffffffffffffffffffff166124c9826118ad565b73ffffffffffffffffffffffffffffffffffffffff1614612552576040517f08c379a000000000000000000000000000000000000000000000000000000000815260040180806020018281038252601f8152602001807f6d75737420626520746865206f776e6572206f662074686520616e696d616c0081525060200191505060405180910390fd5b60016007828154811061256157fe5b906000526020600020906009020160070160006101000a81548160ff021916908315150217905550346007828154811061259757fe5b90600052602060002090600902016008018190555050565b600073ffffffffffffffffffffffffffffffffffffffff168273ffffffffffffffffffffffffffffffffffffffff161415612652576040517f08c379a00000000000000000000000000000000000000000000000000000000081526004018080602001828103825260208152602001807f4552433732313a206d696e7420746f20746865207a65726f206164647265737381525060200191505060405180910390fd5b61265b8161286c565b156126ce576040517f08c379a000000000000000000000000000000000000000000000000000000000815260040180806020018281038252601c8152602001807f4552433732313a20746f6b656e20616c7265616479206d696e7465640000000081525060200191505060405180910390fd5b6126da600083836128de565b816001600083815260200190815260200160002060006101000a81548173ffffffffffffffffffffffffffffffffffffffff021916908373ffffffffffffffffffffffffffffffffffffffff160217905550612773600360008473ffffffffffffffffffffffffffffffffffffffff1673ffffffffffffffffffffffffffffffffffffffff1681526020019081526020016000206128e3565b808273ffffffffffffffffffffffffffffffffffffffff16600073ffffffffffffffffffffffffffffffffffffffff167fddf252ad1be2c89b69c2b068fc378daa952ba7f163c4a11628f55a4df523b3ef60405160405180910390a45050565b600081600001549050919050565b6127f26127ec6128f9565b82612901565b612847576040517f08c379a00000000000000000000000000000000000000000000000000000000081526004018080602001828103825260318152602001806133286031913960400191505060405180910390fd5b6128528383836129f5565b505050565b612869612863826118ad565b82612c5d565b50565b6000806001600084815260200190815260200160002060009054906101000a900473ffffffffffffffffffffffffffffffffffffffff169050600073ffffffffffffffffffffffffffffffffffffffff168173ffffffffffffffffffffffffffffffffffffffff161415915050919050565b505050565b6001816000016000828254019250508190555050565b600033905090565b600061290c8261286c565b612961576040517f08c379a000000000000000000000000000000000000000000000000000000000815260040180806020018281038252602c815260200180613204602c913960400191505060405180910390fd5b600061296c836118ad565b90508073ffffffffffffffffffffffffffffffffffffffff168473ffffffffffffffffffffffffffffffffffffffff1614806129db57508373ffffffffffffffffffffffffffffffffffffffff166129c384612dfa565b73ffffffffffffffffffffffffffffffffffffffff16145b806129ec57506129eb8185612e95565b5b91505092915050565b8273ffffffffffffffffffffffffffffffffffffffff16612a15826118ad565b73ffffffffffffffffffffffffffffffffffffffff1614612a81576040517f08c379a00000000000000000000000000000000000000000000000000000000081526004018080602001828103825260298152602001806132ff6029913960400191505060405180910390fd5b600073ffffffffffffffffffffffffffffffffffffffff168273ffffffffffffffffffffffffffffffffffffffff161415612b07576040517f08c379a00000000000000000000000000000000000000000000000000000000081526004018080602001828103825260248152602001806131e06024913960400191505060405180910390fd5b612b128383836128de565b612b1d600082612f29565b612b64600360008573ffffffffffffffffffffffffffffffffffffffff1673ffffffffffffffffffffffffffffffffffffffff168152602001908152602001600020612fe2565b612bab600360008473ffffffffffffffffffffffffffffffffffffffff1673ffffffffffffffffffffffffffffffffffffffff1681526020019081526020016000206128e3565b816001600083815260200190815260200160002060006101000a81548173ffffffffffffffffffffffffffffffffffffffff021916908373ffffffffffffffffffffffffffffffffffffffff160217905550808273ffffffffffffffffffffffffffffffffffffffff168473ffffffffffffffffffffffffffffffffffffffff167fddf252ad1be2c89b69c2b068fc378daa952ba7f163c4a11628f55a4df523b3ef60405160405180910390a4505050565b8173ffffffffffffffffffffffffffffffffffffffff16612c7d826118ad565b73ffffffffffffffffffffffffffffffffffffffff1614612ce9576040517f08c379a000000000000000000000000000000000000000000000000000000000815260040180806020018281038252602581526020018061337a6025913960400191505060405180910390fd5b612cf5826000836128de565b612d00600082612f29565b612d47600360008473ffffffffffffffffffffffffffffffffffffffff1673ffffffffffffffffffffffffffffffffffffffff168152602001908152602001600020612fe2565b60006001600083815260200190815260200160002060006101000a81548173ffffffffffffffffffffffffffffffffffffffff021916908373ffffffffffffffffffffffffffffffffffffffff16021790555080600073ffffffffffffffffffffffffffffffffffffffff168373ffffffffffffffffffffffffffffffffffffffff167fddf252ad1be2c89b69c2b068fc378daa952ba7f163c4a11628f55a4df523b3ef60405160405180910390a45050565b6000612e058261286c565b612e5a576040517f08c379a000000000000000000000000000000000000000000000000000000000815260040180806020018281038252602c8152602001806132d3602c913960400191505060405180910390fd5b6002600083815260200190815260200160002060009054906101000a900473ffffffffffffffffffffffffffffffffffffffff169050919050565b6000600460008473ffffffffffffffffffffffffffffffffffffffff1673ffffffffffffffffffffffffffffffffffffffff16815260200190815260200160002060008373ffffffffffffffffffffffffffffffffffffffff1673ffffffffffffffffffffffffffffffffffffffff16815260200190815260200160002060009054906101000a900460ff16905092915050565b816002600083815260200190815260200160002060006101000a81548173ffffffffffffffffffffffffffffffffffffffff021916908373ffffffffffffffffffffffffffffffffffffffff160217905550808273ffffffffffffffffffffffffffffffffffffffff16612f9c836118ad565b73ffffffffffffffffffffffffffffffffffffffff167f8c5be1e5ebec7d5bd14f71427d1e84f3dd0314c0f7b2291e5b200ac8c7c3b92560405160405180910390a45050565b612ffa6001826000015461300590919063ffffffff16565b816000018190555050565b600061304783836040518060400160405280601e81526020017f536166654d6174683a207375627472616374696f6e206f766572666c6f77000081525061304f565b905092915050565b60008383111582906130fc576040517f08c379a00000000000000000000000000000000000000000000000000000000081526004018080602001828103825283818151815260200191508051906020019080838360005b838110156130c15780820151818401526020810190506130a6565b50505050905090810190601f1680156130ee5780820380516001836020036101000a031916815260200191505b509250505060405180910390fd5b5060008385039050809150509392505050565b828054600181600116156101000203166002900490600052602060002090601f016020900481019282601f1061315057805160ff191683800117855561317e565b8280016001018555821561317e579182015b8281111561317d578251825591602001919060010190613162565b5b50905061318b919061318f565b5090565b6131b191905b808211156131ad576000816000905550600101613195565b5090565b9056fe616476657273617279206d75737420707574207468652073616d6520616d6f756e74206f66206d6f6e65794552433732313a207472616e7366657220746f20746865207a65726f20616464726573734552433732313a206f70657261746f7220717565727920666f72206e6f6e6578697374656e7420746f6b656e4d61726b6574506c616365206d757374206265206f70656e20746f2070726f706f7365206e65772070726963654552433732313a2062616c616e636520717565727920666f7220746865207a65726f20616464726573734552433732313a206f776e657220717565727920666f72206e6f6e6578697374656e7420746f6b656e4d75737420626520746865206e6577206f776e6572206f662074686520616e696d616c4552433732313a20617070726f76656420717565727920666f72206e6f6e6578697374656e7420746f6b656e4552433732313a207472616e73666572206f6620746f6b656e2074686174206973206e6f74206f776e4552433732313a207472616e736665722063616c6c6572206973206e6f74206f776e6572206e6f7220617070726f7665644d75737420626520746865206f776e6572206f662074686520636f6e74726163744552433732313a206275726e206f6620746f6b656e2074686174206973206e6f74206f776ea26469706673582212206b9f7d1f46bcda486794785517aa0bd20189b87de25229f7d1b07f745a0baf7064736f6c63430006000033",
  "source": "pragma solidity ^0.6.0;\r\n\r\nimport \"./ERC721.sol\";\r\n\r\ncontract Farm is ERC721{\r\n    address payable private contractOwner;\r\n\r\n    struct animal{\r\n        string race;\r\n        uint256 age;\r\n        string ville;\r\n        string color;\r\n        string name;\r\n        uint256 iDparent1;\r\n        uint256 iDparent2;\r\n        bool fight;\r\n        uint256 fightPrice;\r\n    }\r\n    struct enchere{\r\n        uint256 Idmarketplace;\r\n        uint start;\r\n        uint256 animalID;\r\n        address payable currentOwner;\r\n        address payable firstOwner;\r\n        uint256 maxPrice;\r\n        bool state;\r\n    }\r\n    event addBreeder (address breeder);\r\n    event addAuction(uint256 IdOfAuction);\r\n    mapping(address=>bool)public inList;\r\n    animal[] private animalArray;\r\n    address[] private breederArray;\r\n    enchere[] private allRoom;\r\n    uint256 private marketplace =1;\r\n\r\n    constructor()public{\r\n        contractOwner = msg.sender;\r\n    }\r\n    modifier ownerOfContract(){\r\n        require(msg.sender == contractOwner,\"Must be the owner of the contract\");\r\n        _;\r\n    }\r\n    modifier marketPlaceOpen(uint256 IDmarketplace){\r\n        require(allRoom[IDmarketplace].firstOwner != address(0),\"Marketplace should be open\");\r\n        _;\r\n    }\r\n\r\n    function registerBreeder(address breeder) public ownerOfContract {\r\n        breederArray.push(breeder);\r\n        inList[breeder] = true;\r\n        emit addBreeder(breeder);\r\n    }\r\n    function AnimalInformation(uint256 animalID) public view returns(string memory race,\r\n        uint256 age,\r\n        string memory ville,\r\n        string memory color,\r\n        string memory name,\r\n        bool fight,\r\n        uint256 fightPrice){\r\n        return(animalArray[animalID].race,animalArray[animalID].age,animalArray[animalID].ville,\r\n        animalArray[animalID].color,animalArray[animalID].name,animalArray[animalID].fight,animalArray[animalID].fightPrice);\r\n    }\r\n    function declareAnimal(string memory race, uint256 age, string memory ville,string memory color, string memory name) public {\r\n        animalArray.push(animal(race, age, ville, color, name,0,0,false,0));\r\n        _mint(msg.sender, (animalArray.length-1));\r\n    }\r\n    function deadAnimal(uint256 tokenId) public{\r\n        _burn(tokenId);\r\n    }\r\n    function breedAnimal(uint256 tokenId1, uint256 tokenID2, string memory name,string memory color) public{\r\n        animalArray.push(animal(animalArray[tokenId1].race,0, animalArray[tokenId1].ville,color,name,tokenId1,tokenID2,false,0));\r\n        _mint(msg.sender, (animalArray.length-1));\r\n    }\r\n    function createAuction(uint256 tokenId) public{\r\n        require(ownerOf(tokenId)==msg.sender, \"must be the owner of the animal\");\r\n        allRoom.push(enchere(marketplace, (block.timestamp), tokenId, msg.sender, msg.sender,0, true));\r\n        marketplace = marketplace+1;\r\n        emit addAuction(allRoom.length-1);\r\n    }\r\n    function information_marketplace(uint256 marketplaceID) public view returns(uint256 maxprice, address currentWinner, bool state){\r\n        return(allRoom[marketplaceID].maxPrice, allRoom[marketplaceID].currentOwner,allRoom[marketplaceID].state );\r\n    }\r\n    function BidOnAuction(uint256 marketplaceID) public payable marketPlaceOpen(marketplaceID){\r\n        if(now > allRoom[marketplaceID].start + 2 days){\r\n            allRoom[marketplaceID].state = false;\r\n        }\r\n        require(allRoom[marketplaceID].state == true,\"MarketPlace must be open to propose new price\");\r\n        if(allRoom[marketplaceID].maxPrice < msg.value){\r\n            allRoom[marketplaceID].currentOwner.transfer(allRoom[marketplaceID].maxPrice);\r\n            allRoom[marketplaceID].maxPrice = msg.value;\r\n            allRoom[marketplaceID].currentOwner = msg.sender;\r\n        }else{\r\n            msg.sender.transfer(msg.value);\r\n        }\r\n    }\r\n    function claimAuction(uint256 marketplaceID) public marketPlaceOpen(marketplaceID) {\r\n        if(now > allRoom[marketplaceID].start + 2 days){\r\n            allRoom[marketplaceID].state = false;\r\n        }\r\n        require(allRoom[marketplaceID].state == false, \"MarketPlace must be over\");\r\n        require(allRoom[marketplaceID].currentOwner==msg.sender,\"Must be the new owner of the animal\");\r\n        transferFrom(allRoom[marketplaceID].firstOwner, allRoom[marketplaceID].currentOwner, allRoom[marketplaceID].animalID);\r\n        allRoom[marketplaceID].firstOwner.transfer(allRoom[marketplaceID].maxPrice);\r\n        allRoom[marketplaceID].firstOwner = address(0);\r\n    }\r\n    function proposeToFight(uint256 animalID)public payable {\r\n        require(ownerOf(animalID)==msg.sender, \"must be the owner of the animal\");\r\n        animalArray[animalID].fight = true;\r\n        animalArray[animalID].fightPrice = msg.value;\r\n    }\r\n    function agreeToFight(uint256 myAnimalID, uint256 fighter) public payable{\r\n        require(ownerOf(myAnimalID)==msg.sender, \"must be the owner of the animal\");\r\n        require(animalArray[fighter].fight==true,\"adversary must be a fighter\");\r\n        require(animalArray[fighter].fightPrice==msg.value,\"adversary must put the same amount of money\");\r\n        if(animalArray[fighter].age > animalArray[myAnimalID].age){\r\n            payable(ownerOf(fighter)).transfer(msg.value+animalArray[fighter].fightPrice);\r\n        }else{\r\n            msg.sender.transfer(msg.value+animalArray[fighter].fightPrice);\r\n        }\r\n        animalArray[fighter].fight = false;\r\n        animalArray[myAnimalID].fight = false;\r\n        animalArray[fighter].fightPrice = 0;\r\n        animalArray[myAnimalID].fightPrice = 0;\r\n    }\r\n}\r\n",
  "sourcePath": "C:\\Users\\Aymeric-PC\\Desktop\\Cours\\S8\\blockchain development\\TD_animal\\contracts\\Farm.sol",
  "compiler": {
    "name": "solc",
    "version": "0.6.0+commit.26b70077.Emscripten.clang"
  },
  "schemaVersion": "3.0.23",
  "updatedAt": "2020-03-09T12:40:10.348Z",
  "networkType": "ethereum",
  "devdoc": {
    "methods": {
      "balanceOf(address)": {
        "details": "Gets the balance of the specified address.",
        "params": {
          "owner": "address to query the balance of"
        },
        "returns": {
          "_0": "uint256 representing the amount owned by the passed address"
        }
      },
      "ownerOf(uint256)": {
        "details": "Gets the owner of the specified token ID.",
        "params": {
          "tokenId": "uint256 ID of the token to query the owner of"
        },
        "returns": {
          "_0": "address currently marked as the owner of the given token ID"
        }
      },
      "supportsInterface(bytes4)": {
        "details": "See {IERC165-supportsInterface}.      * Time complexity O(1), guaranteed to always use less than 30 000 gas."
      }
    }
  },
  "userdoc": {
    "methods": {}
  }
}